{
  "_format": "hh-sol-artifact-1",
  "contractName": "Todo",
  "sourceName": "contracts/Todo.sol",
  "abi": [
    {
      "inputs": [
        {
          "internalType": "string",
          "name": "_title",
          "type": "string"
        }
      ],
      "name": "addTodo",
      "outputs": [
        {
          "components": [
            {
              "internalType": "uint256",
              "name": "id",
              "type": "uint256"
            },
            {
              "internalType": "string",
              "name": "title",
              "type": "string"
            },
            {
              "internalType": "bool",
              "name": "isCompleted",
              "type": "bool"
            },
            {
              "internalType": "address",
              "name": "owner",
              "type": "address"
            }
          ],
          "internalType": "struct Todo.TodoItem",
          "name": "",
          "type": "tuple"
        }
      ],
      "stateMutability": "nonpayable",
      "type": "function"
    },
    {
      "inputs": [
        {
          "internalType": "uint256",
          "name": "_id",
          "type": "uint256"
        }
      ],
      "name": "deleteTodo",
      "outputs": [
        {
          "internalType": "uint256",
          "name": "",
          "type": "uint256"
        }
      ],
      "stateMutability": "nonpayable",
      "type": "function"
    },
    {
      "inputs": [],
      "name": "getAllTodos",
      "outputs": [
        {
          "components": [
            {
              "internalType": "uint256",
              "name": "id",
              "type": "uint256"
            },
            {
              "internalType": "string",
              "name": "title",
              "type": "string"
            },
            {
              "internalType": "bool",
              "name": "isCompleted",
              "type": "bool"
            },
            {
              "internalType": "address",
              "name": "owner",
              "type": "address"
            }
          ],
          "internalType": "struct Todo.TodoItem[]",
          "name": "",
          "type": "tuple[]"
        }
      ],
      "stateMutability": "view",
      "type": "function"
    },
    {
      "inputs": [],
      "name": "getAllTodosCount",
      "outputs": [
        {
          "internalType": "uint256",
          "name": "",
          "type": "uint256"
        }
      ],
      "stateMutability": "view",
      "type": "function"
    },
    {
      "inputs": [
        {
          "internalType": "address",
          "name": "_owner",
          "type": "address"
        }
      ],
      "name": "getMyTodos",
      "outputs": [
        {
          "components": [
            {
              "internalType": "uint256",
              "name": "id",
              "type": "uint256"
            },
            {
              "internalType": "string",
              "name": "title",
              "type": "string"
            },
            {
              "internalType": "bool",
              "name": "isCompleted",
              "type": "bool"
            },
            {
              "internalType": "address",
              "name": "owner",
              "type": "address"
            }
          ],
          "internalType": "struct Todo.TodoItem[]",
          "name": "",
          "type": "tuple[]"
        }
      ],
      "stateMutability": "view",
      "type": "function"
    },
    {
      "inputs": [],
      "name": "owner",
      "outputs": [
        {
          "internalType": "address payable",
          "name": "",
          "type": "address"
        }
      ],
      "stateMutability": "view",
      "type": "function"
    },
    {
      "inputs": [],
      "name": "return5",
      "outputs": [
        {
          "internalType": "uint256",
          "name": "",
          "type": "uint256"
        }
      ],
      "stateMutability": "view",
      "type": "function"
    },
    {
      "inputs": [],
      "name": "target",
      "outputs": [
        {
          "internalType": "uint256",
          "name": "",
          "type": "uint256"
        }
      ],
      "stateMutability": "view",
      "type": "function"
    },
    {
      "inputs": [
        {
          "internalType": "uint256",
          "name": "",
          "type": "uint256"
        }
      ],
      "name": "todos",
      "outputs": [
        {
          "internalType": "uint256",
          "name": "id",
          "type": "uint256"
        },
        {
          "internalType": "string",
          "name": "title",
          "type": "string"
        },
        {
          "internalType": "bool",
          "name": "isCompleted",
          "type": "bool"
        },
        {
          "internalType": "address",
          "name": "owner",
          "type": "address"
        }
      ],
      "stateMutability": "view",
      "type": "function"
    },
    {
      "inputs": [
        {
          "internalType": "uint256",
          "name": "_id",
          "type": "uint256"
        }
      ],
      "name": "toggleTodo",
      "outputs": [
        {
          "internalType": "uint256",
          "name": "",
          "type": "uint256"
        }
      ],
      "stateMutability": "nonpayable",
      "type": "function"
    }
  ],
  "bytecode": "0x608060405234801561001057600080fd5b506116bc806100206000396000f3fe608060405234801561001057600080fd5b506004361061009e5760003560e01c80639d41579d116100665780639d41579d1461016f578063bc8bc2b41461018d578063ce2bd5d5146101c0578063d4b83992146101de578063dc00282c146101fc5761009e565b806363d790c3146100a35780636e3c6738146100d35780638642ccfa146101035780638da5cb5b1461012157806395ffebf51461013f575b600080fd5b6100bd60048036038101906100b89190610be4565b61022c565b6040516100ca9190610e09565b60405180910390f35b6100ed60048036038101906100e89190610e57565b61053d565b6040516100fa9190610e93565b60405180910390f35b61010b6106d0565b6040516101189190610e93565b60405180910390f35b6101296106dd565b6040516101369190610ecf565b60405180910390f35b6101596004803603810190610154919061101f565b610703565b60405161016691906110cb565b60405180910390f35b610177610807565b6040516101849190610e93565b60405180910390f35b6101a760048036038101906101a29190610e57565b610810565b6040516101b79493929190611155565b60405180910390f35b6101c8610905565b6040516101d59190610e09565b60405180910390f35b6101e6610a71565b6040516101f39190610e93565b60405180910390f35b61021660048036038101906102119190610e57565b610a77565b6040516102239190610e93565b60405180910390f35b6060600080600090505b6002805490508110156102d7578373ffffffffffffffffffffffffffffffffffffffff166002828154811061026e5761026d6111a1565b5b906000526020600020906003020160020160019054906101000a900473ffffffffffffffffffffffffffffffffffffffff1673ffffffffffffffffffffffffffffffffffffffff16036102ca5781806102c6906111ff565b9250505b8080600101915050610236565b5060008167ffffffffffffffff8111156102f4576102f3610ef4565b5b60405190808252806020026020018201604052801561032d57816020015b61031a610ad5565b8152602001906001900390816103125790505b509050600080600090505b600280549050811015610531578573ffffffffffffffffffffffffffffffffffffffff16600282815481106103705761036f6111a1565b5b906000526020600020906003020160020160019054906101000a900473ffffffffffffffffffffffffffffffffffffffff1673ffffffffffffffffffffffffffffffffffffffff160361052457600281815481106103d1576103d06111a1565b5b90600052602060002090600302016040518060800160405290816000820154815260200160018201805461040490611276565b80601f016020809104026020016040519081016040528092919081815260200182805461043090611276565b801561047d5780601f106104525761010080835404028352916020019161047d565b820191906000526020600020905b81548152906001019060200180831161046057829003601f168201915b505050505081526020016002820160009054906101000a900460ff161515151581526020016002820160019054906101000a900473ffffffffffffffffffffffffffffffffffffffff1673ffffffffffffffffffffffffffffffffffffffff1673ffffffffffffffffffffffffffffffffffffffff168152505083838151811061050a576105096111a1565b5b60200260200101819052508180610520906111ff565b9250505b8080600101915050610338565b50819350505050919050565b60006002600160028054905061055391906112a7565b81548110610564576105636111a1565b5b906000526020600020906003020160028381548110610586576105856111a1565b5b906000526020600020906003020160008201548160000155600182018160010190816105b2919061149d565b506002820160009054906101000a900460ff168160020160006101000a81548160ff0219169083151502179055506002820160019054906101000a900473ffffffffffffffffffffffffffffffffffffffff168160020160016101000a81548173ffffffffffffffffffffffffffffffffffffffff021916908373ffffffffffffffffffffffffffffffffffffffff160217905550905050600280548061065c5761065b611585565b5b60019003818190600052602060002090600302016000808201600090556001820160006106899190610b15565b6002820160006101000a81549060ff02191690556002820160016101000a81549073ffffffffffffffffffffffffffffffffffffffff021916905550509055819050919050565b6000600280549050905090565b600160009054906101000a900473ffffffffffffffffffffffffffffffffffffffff1681565b61070b610ad5565b600060405180608001604052804281526020018481526020016000151581526020013373ffffffffffffffffffffffffffffffffffffffff168152509050600281908060018154018082558091505060019003906000526020600020906003020160009091909190915060008201518160000155602082015181600101908161079491906115b4565b5060408201518160020160006101000a81548160ff02191690831515021790555060608201518160020160016101000a81548173ffffffffffffffffffffffffffffffffffffffff021916908373ffffffffffffffffffffffffffffffffffffffff160217905550505080915050919050565b60006005905090565b6002818154811061082057600080fd5b906000526020600020906003020160009150905080600001549080600101805461084990611276565b80601f016020809104026020016040519081016040528092919081815260200182805461087590611276565b80156108c25780601f10610897576101008083540402835291602001916108c2565b820191906000526020600020905b8154815290600101906020018083116108a557829003601f168201915b5050505050908060020160009054906101000a900460ff16908060020160019054906101000a900473ffffffffffffffffffffffffffffffffffffffff16905084565b60606002805480602002602001604051908101604052809291908181526020016000905b82821015610a6857838290600052602060002090600302016040518060800160405290816000820154815260200160018201805461096690611276565b80601f016020809104026020016040519081016040528092919081815260200182805461099290611276565b80156109df5780601f106109b4576101008083540402835291602001916109df565b820191906000526020600020905b8154815290600101906020018083116109c257829003601f168201915b505050505081526020016002820160009054906101000a900460ff161515151581526020016002820160019054906101000a900473ffffffffffffffffffffffffffffffffffffffff1673ffffffffffffffffffffffffffffffffffffffff1673ffffffffffffffffffffffffffffffffffffffff168152505081526020019060010190610929565b50505050905090565b60005481565b60008060028381548110610a8e57610a8d6111a1565b5b906000526020600020906003020190508060020160009054906101000a900460ff16158160020160006101000a81548160ff02191690831515021790555082915050919050565b60405180608001604052806000815260200160608152602001600015158152602001600073ffffffffffffffffffffffffffffffffffffffff1681525090565b508054610b2190611276565b6000825580601f10610b335750610b52565b601f016020900490600052602060002090810190610b519190610b55565b5b50565b5b80821115610b6e576000816000905550600101610b56565b5090565b6000604051905090565b600080fd5b600080fd5b600073ffffffffffffffffffffffffffffffffffffffff82169050919050565b6000610bb182610b86565b9050919050565b610bc181610ba6565b8114610bcc57600080fd5b50565b600081359050610bde81610bb8565b92915050565b600060208284031215610bfa57610bf9610b7c565b5b6000610c0884828501610bcf565b91505092915050565b600081519050919050565b600082825260208201905092915050565b6000819050602082019050919050565b6000819050919050565b610c5081610c3d565b82525050565b600081519050919050565b600082825260208201905092915050565b60005b83811015610c90578082015181840152602081019050610c75565b60008484015250505050565b6000601f19601f8301169050919050565b6000610cb882610c56565b610cc28185610c61565b9350610cd2818560208601610c72565b610cdb81610c9c565b840191505092915050565b60008115159050919050565b610cfb81610ce6565b82525050565b610d0a81610ba6565b82525050565b6000608083016000830151610d286000860182610c47565b5060208301518482036020860152610d408282610cad565b9150506040830151610d556040860182610cf2565b506060830151610d686060860182610d01565b508091505092915050565b6000610d7f8383610d10565b905092915050565b6000602082019050919050565b6000610d9f82610c11565b610da98185610c1c565b935083602082028501610dbb85610c2d565b8060005b85811015610df75784840389528151610dd88582610d73565b9450610de383610d87565b925060208a01995050600181019050610dbf565b50829750879550505050505092915050565b60006020820190508181036000830152610e238184610d94565b905092915050565b610e3481610c3d565b8114610e3f57600080fd5b50565b600081359050610e5181610e2b565b92915050565b600060208284031215610e6d57610e6c610b7c565b5b6000610e7b84828501610e42565b91505092915050565b610e8d81610c3d565b82525050565b6000602082019050610ea86000830184610e84565b92915050565b6000610eb982610b86565b9050919050565b610ec981610eae565b82525050565b6000602082019050610ee46000830184610ec0565b92915050565b600080fd5b600080fd5b7f4e487b7100000000000000000000000000000000000000000000000000000000600052604160045260246000fd5b610f2c82610c9c565b810181811067ffffffffffffffff82111715610f4b57610f4a610ef4565b5b80604052505050565b6000610f5e610b72565b9050610f6a8282610f23565b919050565b600067ffffffffffffffff821115610f8a57610f89610ef4565b5b610f9382610c9c565b9050602081019050919050565b82818337600083830152505050565b6000610fc2610fbd84610f6f565b610f54565b905082815260208101848484011115610fde57610fdd610eef565b5b610fe9848285610fa0565b509392505050565b600082601f83011261100657611005610eea565b5b8135611016848260208601610faf565b91505092915050565b60006020828403121561103557611034610b7c565b5b600082013567ffffffffffffffff81111561105357611052610b81565b5b61105f84828501610ff1565b91505092915050565b60006080830160008301516110806000860182610c47565b50602083015184820360208601526110988282610cad565b91505060408301516110ad6040860182610cf2565b5060608301516110c06060860182610d01565b508091505092915050565b600060208201905081810360008301526110e58184611068565b905092915050565b600082825260208201905092915050565b600061110982610c56565b61111381856110ed565b9350611123818560208601610c72565b61112c81610c9c565b840191505092915050565b61114081610ce6565b82525050565b61114f81610ba6565b82525050565b600060808201905061116a6000830187610e84565b818103602083015261117c81866110fe565b905061118b6040830185611137565b6111986060830184611146565b95945050505050565b7f4e487b7100000000000000000000000000000000000000000000000000000000600052603260045260246000fd5b7f4e487b7100000000000000000000000000000000000000000000000000000000600052601160045260246000fd5b600061120a82610c3d565b91507fffffffffffffffffffffffffffffffffffffffffffffffffffffffffffffffff820361123c5761123b6111d0565b5b600182019050919050565b7f4e487b7100000000000000000000000000000000000000000000000000000000600052602260045260246000fd5b6000600282049050600182168061128e57607f821691505b6020821081036112a1576112a0611247565b5b50919050565b60006112b282610c3d565b91506112bd83610c3d565b92508282039050818111156112d5576112d46111d0565b5b92915050565b6000815490506112ea81611276565b9050919050565b60008190508160005260206000209050919050565b60006020601f8301049050919050565b600082821b905092915050565b6000600883026113537fffffffffffffffffffffffffffffffffffffffffffffffffffffffffffffffff82611316565b61135d8683611316565b95508019841693508086168417925050509392505050565b6000819050919050565b600061139a61139561139084610c3d565b611375565b610c3d565b9050919050565b6000819050919050565b6113b48361137f565b6113c86113c0826113a1565b848454611323565b825550505050565b600090565b6113dd6113d0565b6113e88184846113ab565b505050565b5b8181101561140c576114016000826113d5565b6001810190506113ee565b5050565b601f82111561145157611422816112f1565b61142b84611306565b8101602085101561143a578190505b61144e61144685611306565b8301826113ed565b50505b505050565b600082821c905092915050565b600061147460001984600802611456565b1980831691505092915050565b600061148d8383611463565b9150826002028217905092915050565b8181036114ab575050611583565b6114b4826112db565b67ffffffffffffffff8111156114cd576114cc610ef4565b5b6114d78254611276565b6114e2828285611410565b6000601f83116001811461151157600084156114ff578287015490505b6115098582611481565b86555061157c565b601f19841661151f876112f1565b965061152a866112f1565b60005b828110156115525784890154825560018201915060018501945060208101905061152d565b8683101561156f578489015461156b601f891682611463565b8355505b6001600288020188555050505b5050505050505b565b7f4e487b7100000000000000000000000000000000000000000000000000000000600052603160045260246000fd5b6115bd82610c56565b67ffffffffffffffff8111156115d6576115d5610ef4565b5b6115e08254611276565b6115eb828285611410565b600060209050601f83116001811461161e576000841561160c578287015190505b6116168582611481565b86555061167e565b601f19841661162c866112f1565b60005b828110156116545784890151825560018201915060208501945060208101905061162f565b86831015611671578489015161166d601f891682611463565b8355505b6001600288020188555050505b50505050505056fea26469706673582212204426f8c16f5c10558b9d176db3d930a7943c783f58313b2d97a6b89d9dfc40f064736f6c63430008180033",
  "linkReferences": {},
  "deployedLinkReferences": {}
}