{
  "_format": "hh-sol-artifact-1",
  "contractName": "Todo",
  "sourceName": "contracts/Todo2.sol",
  "abi": [
    {
      "inputs": [
        {
          "internalType": "string",
          "name": "_title",
          "type": "string"
        }
      ],
      "name": "addTodo",
      "outputs": [
        {
          "components": [
            {
              "internalType": "uint256",
              "name": "id",
              "type": "uint256"
            },
            {
              "internalType": "string",
              "name": "title",
              "type": "string"
            },
            {
              "internalType": "bool",
              "name": "isCompleted",
              "type": "bool"
            },
            {
              "internalType": "address",
              "name": "owner",
              "type": "address"
            }
          ],
          "internalType": "struct Todo.TodoItem",
          "name": "",
          "type": "tuple"
        }
      ],
      "stateMutability": "nonpayable",
      "type": "function"
    },
    {
      "inputs": [
        {
          "internalType": "uint256",
          "name": "_id",
          "type": "uint256"
        }
      ],
      "name": "deleteTodo",
      "outputs": [],
      "stateMutability": "nonpayable",
      "type": "function"
    },
    {
      "inputs": [],
      "name": "getAllTodos",
      "outputs": [
        {
          "components": [
            {
              "internalType": "uint256",
              "name": "id",
              "type": "uint256"
            },
            {
              "internalType": "string",
              "name": "title",
              "type": "string"
            },
            {
              "internalType": "bool",
              "name": "isCompleted",
              "type": "bool"
            },
            {
              "internalType": "address",
              "name": "owner",
              "type": "address"
            }
          ],
          "internalType": "struct Todo.TodoItem[]",
          "name": "",
          "type": "tuple[]"
        }
      ],
      "stateMutability": "view",
      "type": "function"
    },
    {
      "inputs": [],
      "name": "getAllTodosCount",
      "outputs": [
        {
          "internalType": "uint256",
          "name": "",
          "type": "uint256"
        }
      ],
      "stateMutability": "view",
      "type": "function"
    },
    {
      "inputs": [
        {
          "internalType": "address",
          "name": "_owner",
          "type": "address"
        }
      ],
      "name": "getMyTodos",
      "outputs": [
        {
          "components": [
            {
              "internalType": "uint256",
              "name": "id",
              "type": "uint256"
            },
            {
              "internalType": "string",
              "name": "title",
              "type": "string"
            },
            {
              "internalType": "bool",
              "name": "isCompleted",
              "type": "bool"
            },
            {
              "internalType": "address",
              "name": "owner",
              "type": "address"
            }
          ],
          "internalType": "struct Todo.TodoItem[]",
          "name": "",
          "type": "tuple[]"
        }
      ],
      "stateMutability": "view",
      "type": "function"
    },
    {
      "inputs": [],
      "name": "owner",
      "outputs": [
        {
          "internalType": "address payable",
          "name": "",
          "type": "address"
        }
      ],
      "stateMutability": "view",
      "type": "function"
    },
    {
      "inputs": [],
      "name": "target",
      "outputs": [
        {
          "internalType": "uint256",
          "name": "",
          "type": "uint256"
        }
      ],
      "stateMutability": "view",
      "type": "function"
    },
    {
      "inputs": [
        {
          "internalType": "uint256",
          "name": "",
          "type": "uint256"
        }
      ],
      "name": "todos",
      "outputs": [
        {
          "internalType": "uint256",
          "name": "id",
          "type": "uint256"
        },
        {
          "internalType": "string",
          "name": "title",
          "type": "string"
        },
        {
          "internalType": "bool",
          "name": "isCompleted",
          "type": "bool"
        },
        {
          "internalType": "address",
          "name": "owner",
          "type": "address"
        }
      ],
      "stateMutability": "view",
      "type": "function"
    },
    {
      "inputs": [
        {
          "internalType": "uint256",
          "name": "_id",
          "type": "uint256"
        }
      ],
      "name": "toggleTodo",
      "outputs": [
        {
          "internalType": "uint256",
          "name": "",
          "type": "uint256"
        }
      ],
      "stateMutability": "nonpayable",
      "type": "function"
    }
  ],
  "bytecode": "0x608060405234801561001057600080fd5b5061197b806100206000396000f3fe608060405234801561001057600080fd5b50600436106100935760003560e01c806395ffebf51161006657806395ffebf514610120578063bc8bc2b414610150578063ce2bd5d514610183578063d4b83992146101a1578063dc00282c146101bf57610093565b806363d790c3146100985780636e3c6738146100c85780638642ccfa146100e45780638da5cb5b14610102575b600080fd5b6100b260048036038101906100ad9190610d27565b6101ef565b6040516100bf9190610f4c565b60405180910390f35b6100e260048036038101906100dd9190610f9a565b6104fe565b005b6100ec61078a565b6040516100f99190610fd6565b60405180910390f35b61010a610797565b6040516101179190611012565b60405180910390f35b61013a60048036038101906101359190611162565b6107bd565b604051610147919061120e565b60405180910390f35b61016a60048036038101906101659190610f9a565b6108c1565b60405161017a9493929190611298565b60405180910390f35b61018b6109b6565b6040516101989190610f4c565b60405180910390f35b6101a9610b22565b6040516101b69190610fd6565b60405180910390f35b6101d960048036038101906101d49190610f9a565b610b28565b6040516101e69190610fd6565b60405180910390f35b606060008067ffffffffffffffff81111561020d5761020c611037565b5b60405190808252806020026020018201604052801561024657816020015b610233610c18565b81526020019060019003908161022b5790505b50905060005b6002805490508110156104f4578373ffffffffffffffffffffffffffffffffffffffff1660028281548110610284576102836112e4565b5b906000526020600020906003020160020160019054906101000a900473ffffffffffffffffffffffffffffffffffffffff1673ffffffffffffffffffffffffffffffffffffffff16036104e7576000600183516102e19190611342565b67ffffffffffffffff8111156102fa576102f9611037565b5b60405190808252806020026020018201604052801561033357816020015b610320610c18565b8152602001906001900390816103185790505b50905060005b835181101561038857838181518110610355576103546112e4565b5b60200260200101518282815181106103705761036f6112e4565b5b60200260200101819052508080600101915050610339565b506002828154811061039d5761039c6112e4565b5b9060005260206000209060030201604051806080016040529081600082015481526020016001820180546103d0906113a5565b80601f01602080910402602001604051908101604052809291908181526020018280546103fc906113a5565b80156104495780601f1061041e57610100808354040283529160200191610449565b820191906000526020600020905b81548152906001019060200180831161042c57829003601f168201915b505050505081526020016002820160009054906101000a900460ff161515151581526020016002820160019054906101000a900473ffffffffffffffffffffffffffffffffffffffff1673ffffffffffffffffffffffffffffffffffffffff1673ffffffffffffffffffffffffffffffffffffffff1681525050818451815181106104d7576104d66112e4565b5b6020026020010181905250809250505b808060010191505061024c565b5080915050919050565b6002805490508110610545576040517f08c379a000000000000000000000000000000000000000000000000000000000815260040161053c90611422565b60405180910390fd5b60006002828154811061055b5761055a6112e4565b5b906000526020600020906003020190503373ffffffffffffffffffffffffffffffffffffffff168160020160019054906101000a900473ffffffffffffffffffffffffffffffffffffffff1673ffffffffffffffffffffffffffffffffffffffff16146105fd576040517f08c379a00000000000000000000000000000000000000000000000000000000081526004016105f4906114b4565b60405180910390fd5b6002600160028054905061061191906114d4565b81548110610622576106216112e4565b5b906000526020600020906003020160028381548110610644576106436112e4565b5b9060005260206000209060030201600082015481600001556001820181600101908161067091906116ca565b506002820160009054906101000a900460ff168160020160006101000a81548160ff0219169083151502179055506002820160019054906101000a900473ffffffffffffffffffffffffffffffffffffffff168160020160016101000a81548173ffffffffffffffffffffffffffffffffffffffff021916908373ffffffffffffffffffffffffffffffffffffffff160217905550905050600280548061071a576107196117b2565b5b60019003818190600052602060002090600302016000808201600090556001820160006107479190610c58565b6002820160006101000a81549060ff02191690556002820160016101000a81549073ffffffffffffffffffffffffffffffffffffffff0219169055505090555050565b6000600280549050905090565b600160009054906101000a900473ffffffffffffffffffffffffffffffffffffffff1681565b6107c5610c18565b600060405180608001604052804281526020018481526020016000151581526020013373ffffffffffffffffffffffffffffffffffffffff168152509050600281908060018154018082558091505060019003906000526020600020906003020160009091909190915060008201518160000155602082015181600101908161084e91906117e1565b5060408201518160020160006101000a81548160ff02191690831515021790555060608201518160020160016101000a81548173ffffffffffffffffffffffffffffffffffffffff021916908373ffffffffffffffffffffffffffffffffffffffff160217905550505080915050919050565b600281815481106108d157600080fd5b90600052602060002090600302016000915090508060000154908060010180546108fa906113a5565b80601f0160208091040260200160405190810160405280929190818152602001828054610926906113a5565b80156109735780601f1061094857610100808354040283529160200191610973565b820191906000526020600020905b81548152906001019060200180831161095657829003601f168201915b5050505050908060020160009054906101000a900460ff16908060020160019054906101000a900473ffffffffffffffffffffffffffffffffffffffff16905084565b60606002805480602002602001604051908101604052809291908181526020016000905b82821015610b19578382906000526020600020906003020160405180608001604052908160008201548152602001600182018054610a17906113a5565b80601f0160208091040260200160405190810160405280929190818152602001828054610a43906113a5565b8015610a905780601f10610a6557610100808354040283529160200191610a90565b820191906000526020600020905b815481529060010190602001808311610a7357829003601f168201915b505050505081526020016002820160009054906101000a900460ff161515151581526020016002820160019054906101000a900473ffffffffffffffffffffffffffffffffffffffff1673ffffffffffffffffffffffffffffffffffffffff1673ffffffffffffffffffffffffffffffffffffffff1681525050815260200190600101906109da565b50505050905090565b60005481565b60008060028381548110610b3f57610b3e6112e4565b5b906000526020600020906003020190503373ffffffffffffffffffffffffffffffffffffffff168160020160019054906101000a900473ffffffffffffffffffffffffffffffffffffffff1673ffffffffffffffffffffffffffffffffffffffff1614610be1576040517f08c379a0000000000000000000000000000000000000000000000000000000008152600401610bd890611925565b60405180910390fd5b8060020160009054906101000a900460ff16158160020160006101000a81548160ff02191690831515021790555082915050919050565b60405180608001604052806000815260200160608152602001600015158152602001600073ffffffffffffffffffffffffffffffffffffffff1681525090565b508054610c64906113a5565b6000825580601f10610c765750610c95565b601f016020900490600052602060002090810190610c949190610c98565b5b50565b5b80821115610cb1576000816000905550600101610c99565b5090565b6000604051905090565b600080fd5b600080fd5b600073ffffffffffffffffffffffffffffffffffffffff82169050919050565b6000610cf482610cc9565b9050919050565b610d0481610ce9565b8114610d0f57600080fd5b50565b600081359050610d2181610cfb565b92915050565b600060208284031215610d3d57610d3c610cbf565b5b6000610d4b84828501610d12565b91505092915050565b600081519050919050565b600082825260208201905092915050565b6000819050602082019050919050565b6000819050919050565b610d9381610d80565b82525050565b600081519050919050565b600082825260208201905092915050565b60005b83811015610dd3578082015181840152602081019050610db8565b60008484015250505050565b6000601f19601f8301169050919050565b6000610dfb82610d99565b610e058185610da4565b9350610e15818560208601610db5565b610e1e81610ddf565b840191505092915050565b60008115159050919050565b610e3e81610e29565b82525050565b610e4d81610ce9565b82525050565b6000608083016000830151610e6b6000860182610d8a565b5060208301518482036020860152610e838282610df0565b9150506040830151610e986040860182610e35565b506060830151610eab6060860182610e44565b508091505092915050565b6000610ec28383610e53565b905092915050565b6000602082019050919050565b6000610ee282610d54565b610eec8185610d5f565b935083602082028501610efe85610d70565b8060005b85811015610f3a5784840389528151610f1b8582610eb6565b9450610f2683610eca565b925060208a01995050600181019050610f02565b50829750879550505050505092915050565b60006020820190508181036000830152610f668184610ed7565b905092915050565b610f7781610d80565b8114610f8257600080fd5b50565b600081359050610f9481610f6e565b92915050565b600060208284031215610fb057610faf610cbf565b5b6000610fbe84828501610f85565b91505092915050565b610fd081610d80565b82525050565b6000602082019050610feb6000830184610fc7565b92915050565b6000610ffc82610cc9565b9050919050565b61100c81610ff1565b82525050565b60006020820190506110276000830184611003565b92915050565b600080fd5b600080fd5b7f4e487b7100000000000000000000000000000000000000000000000000000000600052604160045260246000fd5b61106f82610ddf565b810181811067ffffffffffffffff8211171561108e5761108d611037565b5b80604052505050565b60006110a1610cb5565b90506110ad8282611066565b919050565b600067ffffffffffffffff8211156110cd576110cc611037565b5b6110d682610ddf565b9050602081019050919050565b82818337600083830152505050565b6000611105611100846110b2565b611097565b90508281526020810184848401111561112157611120611032565b5b61112c8482856110e3565b509392505050565b600082601f8301126111495761114861102d565b5b81356111598482602086016110f2565b91505092915050565b60006020828403121561117857611177610cbf565b5b600082013567ffffffffffffffff81111561119657611195610cc4565b5b6111a284828501611134565b91505092915050565b60006080830160008301516111c36000860182610d8a565b50602083015184820360208601526111db8282610df0565b91505060408301516111f06040860182610e35565b5060608301516112036060860182610e44565b508091505092915050565b6000602082019050818103600083015261122881846111ab565b905092915050565b600082825260208201905092915050565b600061124c82610d99565b6112568185611230565b9350611266818560208601610db5565b61126f81610ddf565b840191505092915050565b61128381610e29565b82525050565b61129281610ce9565b82525050565b60006080820190506112ad6000830187610fc7565b81810360208301526112bf8186611241565b90506112ce604083018561127a565b6112db6060830184611289565b95945050505050565b7f4e487b7100000000000000000000000000000000000000000000000000000000600052603260045260246000fd5b7f4e487b7100000000000000000000000000000000000000000000000000000000600052601160045260246000fd5b600061134d82610d80565b915061135883610d80565b92508282019050808211156113705761136f611313565b5b92915050565b7f4e487b7100000000000000000000000000000000000000000000000000000000600052602260045260246000fd5b600060028204905060018216806113bd57607f821691505b6020821081036113d0576113cf611376565b5b50919050565b7f496e76616c696420546f646f2049442e00000000000000000000000000000000600082015250565b600061140c601083611230565b9150611417826113d6565b602082019050919050565b6000602082019050818103600083015261143b816113ff565b9050919050565b7f4f6e6c7920746865206f776e65722063616e2064656c6574652074686973207460008201527f6f646f2e00000000000000000000000000000000000000000000000000000000602082015250565b600061149e602483611230565b91506114a982611442565b604082019050919050565b600060208201905081810360008301526114cd81611491565b9050919050565b60006114df82610d80565b91506114ea83610d80565b925082820390508181111561150257611501611313565b5b92915050565b600081549050611517816113a5565b9050919050565b60008190508160005260206000209050919050565b60006020601f8301049050919050565b600082821b905092915050565b6000600883026115807fffffffffffffffffffffffffffffffffffffffffffffffffffffffffffffffff82611543565b61158a8683611543565b95508019841693508086168417925050509392505050565b6000819050919050565b60006115c76115c26115bd84610d80565b6115a2565b610d80565b9050919050565b6000819050919050565b6115e1836115ac565b6115f56115ed826115ce565b848454611550565b825550505050565b600090565b61160a6115fd565b6116158184846115d8565b505050565b5b818110156116395761162e600082611602565b60018101905061161b565b5050565b601f82111561167e5761164f8161151e565b61165884611533565b81016020851015611667578190505b61167b61167385611533565b83018261161a565b50505b505050565b600082821c905092915050565b60006116a160001984600802611683565b1980831691505092915050565b60006116ba8383611690565b9150826002028217905092915050565b8181036116d85750506117b0565b6116e182611508565b67ffffffffffffffff8111156116fa576116f9611037565b5b61170482546113a5565b61170f82828561163d565b6000601f83116001811461173e576000841561172c578287015490505b61173685826116ae565b8655506117a9565b601f19841661174c8761151e565b96506117578661151e565b60005b8281101561177f5784890154825560018201915060018501945060208101905061175a565b8683101561179c5784890154611798601f891682611690565b8355505b6001600288020188555050505b5050505050505b565b7f4e487b7100000000000000000000000000000000000000000000000000000000600052603160045260246000fd5b6117ea82610d99565b67ffffffffffffffff81111561180357611802611037565b5b61180d82546113a5565b61181882828561163d565b600060209050601f83116001811461184b5760008415611839578287015190505b61184385826116ae565b8655506118ab565b601f1984166118598661151e565b60005b828110156118815784890151825560018201915060208501945060208101905061185c565b8683101561189e578489015161189a601f891682611690565b8355505b6001600288020188555050505b505050505050565b7f4f6e6c7920746865206f776e65722063616e20746f67676c652074686973207460008201527f6f646f2e00000000000000000000000000000000000000000000000000000000602082015250565b600061190f602483611230565b915061191a826118b3565b604082019050919050565b6000602082019050818103600083015261193e81611902565b905091905056fea2646970667358221220852a45830b593d5517ec2451adc6e6f6ad5d2037a54b10b0dfc6043bc03b0c0664736f6c63430008180033",
  "linkReferences": {},
  "deployedLinkReferences": {}
}